:020000040800F2
:100000003004002005010008051600080716000846
:100010000B1600080F160008131600080000000059
:10002000000000000000000000000000171600089B
:1000300019160008000000001B1600081D16000815
:100040001F0100081F0100081F0100081F01000810
:100050001F0100081F0100081F0100081F01000800
:100060001F0100081F0100081F0100081F010008F0
:100070001F0100081F0100081F0100081F010008E0
:100080001F0100081F0100081F0100081F010008D0
:100090001F0100081F0100081F0100081F010008C0
:1000A0001F0100081F0100081F0100081F010008B0
:1000B0001F0100081F0100081F0100081F010008A0
:1000C0001F0100081F0100081F0100081F01000890
:1000D0001F0100081F0100081F0100081F01000880
:1000E0001F0100081F0100081F010008DFF810D0E1
:1000F00002F0A2F800480047A3150008AFF3008003
:10010000300400200648804706480047FEE7FEE727
:10011000FEE7FEE7FEE7FEE7FEE7FEE7FEE7FEE7B7
:1001200007020008ED0000080CB5002001900090C7
:100130006C48006840F480306A49086000BF694834
:10014000006800F4003000900198401C0190009875
:1001500018B90198B0F5A06FF1D16248006800F4B9
:10016000003010B10120009001E0002000900098C4
:10017000012843D15C48006840F010005A490860EB
:100180000846006820F0030008600846006840F058
:100190000200086053484068524948600846406879
:1001A00048600846406840F48060486008464068FF
:1001B00020F47C1048600846406840F4E81048602D
:1001C0000846006840F08070086000BF454800683D
:1001D00000F000700028F9D04248406820F0030089
:1001E000404948600846406840F00200486000BF4F
:1001F0003C48406800F00C000828F9D10CBD10B54F
:10020000FFF792FF10BD10B53648006840F00100BE
:10021000344908600846406834490840314948601C
:1002200008460068324908402E49086008460068C0
:1002300020F4802008600846406820F4FE004860F2
:100240004FF41F008860FFF7DAFF4FF00060294984
:10025000086010BD10B5002100200022214B5B6812
:1002600003F00C0121B1042906D0082928D107E0A8
:10027000214B224C236027E01F4B204C236023E0BE
:10028000184B5B6803F47010164B5B6803F4803204
:10029000022303EB904022B9194B4343174C2360D0
:1002A0000DE0104B5B6803F4003323B1144B434360
:1002B000124C236003E0104B4343104C236003E0D7
:1002C0000D4B0E4C236000BF00BF064B5B68C3F3B1
:1002D00003130C4CE15C094B1B68CB40074C2360BB
:1002E00010BD000000100240002002400000FFF896
:1002F000FFFFF6FE08ED00E000127A00000000208B
:1003000000093D000400002031490143314A1160D9
:10031000704770B5002100230F22C47804B32D4C20
:10032000246804F4E064C4F5E064210AC1F1040324
:10033000CA40447804FA03F1847814402143090147
:10034000254C0678A155047804F01F050124AC4023
:1003500005786D11AD0005F1E025C5F8004109E013
:10036000047804F01F050124AC401C4D067876117A
:1003700045F8264070BD1A4A0A400243154B1B1F20
:100380001A60704739B1134A121D12680243114BAB
:100390001B1D1A6006E00F4A121D126882430D4BA6
:1003A0001B1D1A607047042808D14FF0E02109692D
:1003B00041F004014FF0E022116107E04FF0E0212D
:1003C000096921F004014FF0E0221161704700003B
:1003D0000000FA050CED00E000E400E080E100E040
:1003E00080FFFF1F10B50446FA48844208D101215E
:1003F000401500F07FFE0021601500F07BFE17E045
:10040000F548844208D10121001500F073FE002157
:10041000201500F06FFE0BE0F048844208D1012166
:10042000C80300F067FE00214FF4004000F062FEB8
:1004300010BD30B50246002000235068E84C204033
:100440000D790C6844EA0524204350609068E54C1F
:100450002040D1E902542C434D7944EA450420431D
:100460009060D06A20F470000C7C641EE4B22343D8
:1004700040EA0350D06230BD00210160017141713A
:100480008160C16001210174704721B1826842F02E
:100490000102826003E0826822F0010282607047FC
:1004A00021B1826842F48072826003E0826822F4A3
:1004B00080728260704710B50023CBB21AB14468D5
:1004C0001C43446002E044689C43446010BD816862
:1004D00041F0080181607047014600208A6802F0FF
:1004E00008020AB1012000E000207047816841F055
:1004F000040181607047014600208A6802F004020E
:100500000AB1012000E00020704721B1826842F466
:10051000A002826003E0826822F4A0028260704739
:10052000014600208A6802F480020AB1012000E03E
:100530000020704710B50A4600210023416821F4CD
:100540006041531E41EA4331416010BD21B1426810
:1005500042F40062426003E0426822F400624260BA
:100560007047F0B504460D4600200021092D11DD2D
:10057000E068A5F10A0606EB4607072606FA07F12A
:100580008843A5F10A0606EB460603FA06F108437E
:10059000E0600CE0206905EB4507072606FA07F145
:1005A000884305EB450603FA06F108432061072A54
:1005B0000FDA606B561E06EB86071F2606FA07F158
:1005C0008843561E06EB860605FA06F1084360636B
:1005D00022E00D2A0FDA206BD61F06EB86071F26B6
:1005E00006FA07F18843D61F06EB860605FA06F1E0
:1005F0000843206310E0E06AA2F10D0606EB8607CF
:100600001F2606FA07F18843A2F10D0606EB8606BF
:1006100005FA06F10843E062F0BD21B1826842F4B8
:100620008012826003E0826822F480128260704748
:100630000146C86C80B2704766484C30006870470D
:1006400021B1426842F48062426003E0426822F4D1
:1006500080624260704721B1426842F48052426039
:1006600003E0426822F48052426070470A4600214B
:10067000816821F4E04111438160704721B18268B3
:1006800042F40042826003E0826822F40042826009
:10069000704721B1826842F40212826003E08268EE
:1006A00022F4021282607047014600208A6802F438
:1006B00000120AB1012000E000207047F0B50446A6
:1006C0001546002000220026092911DDE068A1F16D
:1006D0000A0707EB470C072707FA0CF29043A1F132
:1006E0000A0707EB470703FA07F21043E0600CE044
:1006F000206901EB410C072707FA0CF2904301EB4C
:10070000410703FA07F210432061A06BC0F30156C2
:10071000EF1C06F1010CA7EB0C0707EB870C1F275A
:1007200007FA0CF29043EF1C06F1010CA7EB0C0743
:1007300007EB870701FA07F21043A063F0BD10B57D
:100740000A4600210023816B21F44011531E41EA27
:100750000351816310BD08B5002300930090009BF6
:100760000B440093009B1A6008BD08B502460020A8
:100770000090009201F12800009B1844009000981E
:10078000006880B208BD0A4600214168164B194036
:100790001143416070474162826270470A460021FE
:1007A000416821F01F0111434160704740B1094980
:1007B0000831096841F40001064A0832116007E077
:1007C00004490831096821F40001024A0832116025
:1007D000704700000024014000280140003C014017
:1007E000FFFEF0FFFDF7F1FFFFFD3FFF0246002097
:1007F00013680B400BB1012000E000207047CA4392
:100800000260704770B502460020002300240B12DE
:100810005568CEB205EA060415681D4015B10CB145
:10082000012000E0002070BD00220A12D3430360C3
:100830007047000001684FF6FE7211400160002110
:10084000016041608160C1608D49884208D18C4956
:100850000839496841F00F01894A083A51608AE035
:1008600087491431884208D185490839496841F0DF
:10087000F001834A083A51607DE08149283188427D
:1008800008D17F490839496841F470617C4A083AC7
:10089000516070E07A493C31884208D17849083982
:1008A000496841F47041764A083A516063E07449FE
:1008B0005031884208D172490839496841F47021A1
:1008C0006F4A083A516056E06D496431884208D158
:1008D0006B490839496841F47001694A083A516026
:1008E00049E067497831884208D165490839496843
:1008F00041F07061624A083A51603CE061498842C7
:1009000006D1011F096841F00F01021F116032E09A
:100910005C491431884208D15A49091F096841F0DD
:10092000F001584A121F116025E0564928318842CB
:1009300008D15449091F096841F47061514A121FD6
:10094000116018E04F493C31884208D14D49091FD8
:10095000096841F470414B4A121F11600BE049498C
:100960005031884207D14749091F096841F4702175
:10097000444A121F1160704710B50022026847F602
:10098000F0739A430C6A8B6823430C6923434C69C8
:1009900023438C692343CC6923434C6A23438C6AE9
:1009A00023431A430260CB6843600B6883604B6843
:1009B000C36010BD0021016041608160C1600161C0
:1009C00041618161C161016241628162704721B10F
:1009D000026842F00102026004E002684FF6FE7312
:1009E0001A40026070471AB103680B43036002E0CB
:1009F00003688B4303607047416070470146486855
:100A000080B2704701460020002201F080531BB1E4
:100A10001C4B083B1A6802E0194B083B1A6802EAB3
:100A200001030BB1012000E00020704700F080516D
:100A300019B11449091F086002E0114908394860DA
:100A4000704701460020002201F080531BB10D4B7E
:100A5000083B1A6802E00A4B083B1A6802EA0103E5
:100A60000BB1012000E00020704700F0805119B167
:100A70000449091F086002E00149083948607047CD
:100A8000080002400804024010B50446CC488442E5
:100A900008D10121042000F02DFB0021042000F0EA
:100AA00029FB46E0C748844208D10121082000F014
:100AB00021FB0021082000F01DFB3AE0C2488442DF
:100AC00008D10121102000F015FB0021102000F0BA
:100AD00011FB2EE0BD48844208D10121202000F006
:100AE00009FB0021202000F005FB22E0B8488442E9
:100AF00008D10121402000F0FDFA0021402000F043
:100B0000F9FA16E0B348844208D10121802000F0B0
:100B1000F1FA0021802000F0EDFA0AE0AE488442AC
:100B200007D10121801500F0E5FA0021A01500F0A1
:100B3000E1FA10BD10B50121084600F0DBFA0021F2
:100B4000012000F0D7FA10BD2DE9F0410246002542
:100B50000026002000230024002791F803C00CF099
:100B60000F0591F803C00CF0100CBCF1000F03D07E
:100B700091F802C04CEA050591F800C0BCF1000FE5
:100B800031D0146800202BE04FF0010C0CFA00F378
:100B9000B1F800C00CEA03069E4220D183004FF05A
:100BA0000F0C0CFA03F7BC4305FA03FC4CEA0404EF
:100BB00091F803C0BCF1280F06D14FF0010C0CFADC
:100BC00000FCC2F814C00AE091F803C0BCF1480F61
:100BD00005D14FF0010C0CFA00FCC2F810C0401C0B
:100BE0000828D1D31460B1F800C0BCF1FF0F34DD88
:100BF000546800202EE000F1080C4FF0010808FABC
:100C00000CF3B1F800C00CEA03069E4221D1830028
:100C10004FF00F0C0CFA03F7BC4305FA03FC4CEA47
:100C2000040491F803C0BCF1280F05D100F1080CB1
:100C300008FA0CF8C2F8148091F803C0BCF1480F10
:100C400007D100F1080C4FF0010808FA0CF8C2F8BF
:100C50001080401C0828CED35460BDE8F0814FF6C8
:100C6000FF710180022181700421C170704702462A
:100C7000002093680B400BB1012000E0002070477A
:100C80000146886880B2704702460020D3680B4056
:100C90000BB1012000E0002070470146C86880B217
:100CA000704701617047416170470AB1016100E01E
:100CB00041617047C16070474FF480320A438261DE
:100CC0008161826182698269704702460020434BDC
:100CD00018684FF68073184040EA021008433F4BF3
:100CE000186070473E49C8617047F0B50A46002356
:100CF00000240021002500F00046B6F1004F02D18B
:100D0000364EF16901E0354E7168C0F3034583B298
:100D100000F44016B6F5401F08D121F070612F4E47
:100D2000766826F070662D4F7E6012E000F4801623
:100D3000B6F5801F06D1032606FA05F4A14341F05B
:100D4000706106E0460D360103FA06F6B14341F044
:100D5000706122B1460D360103FA06F6314300F008
:100D60000046B6F1004F02D11C4EF16101E01B4E6E
:100D70007160F0BD30B500228B071C0F0F2303FA02
:100D800004F2164B08338C1053F824309343134C61
:100D900008348D1044F8253023468C1053F8243045
:100DA0008C07240F00FA04F423430C4C08348D10F4
:100DB00044F8253030BD0A49DC3108607047000036
:100DC00000080140000C01400010014000140140E7
:100DD00000180140001C01400020014000000140BB
:100DE00000002042DF48006840F00100DD49086053
:100DF00008464068DC490840DA494860084600680F
:100E0000DA490840D74908600846006820F4802085
:100E100008600846406820F4FE0048604FF41F0058
:100E200088607047CF49096821F48031CD4A11604C
:100E30001146096821F480211160B0F5803F03D08C
:100E4000B0F5802F0ED106E0C649096841F4803123
:100E5000C44A116007E0C349096841F4A021C14AAE
:100E6000116000E000BF00BF704710B501460022CE
:100E7000002300204A11012A02D1BA4C236806E05F
:100E8000022A02D1B74C236A01E0B64C636A01F032
:100E90001F02012494401C400CB1012000E00020FE
:100EA00010BD38B5002000900024002500BF31207F
:100EB000FFF7DBFF05460098401C00900098B0F556
:100EC000A06F01D0002DF2D03120FFF7CEFF08B186
:100ED000012400E00024204638BD01460020A14A3C
:100EE000106820F0F80040EAC10010607047A04987
:100EF00008607047024600209A4B586820F47C1026
:100F000042EA01031843974B5860704798490866B6
:100F1000704701460020934A506820F003000843C0
:100F2000506070478F48406800F00C0070470146E1
:100F300000208C4A506820F0F00008435060704751
:100F400001460020874A506820F4E0600843506062
:100F5000704701460020834A506820F4605040EA00
:100F6000C1005060704729B17E4A527A02437D4BDE
:100F70005A7204E07B4A527A82437A4B5A72704723
:100F80007B49D8310860704701460020754A506897
:100F900020F440400843506070470021714A2032DD
:100FA0001170704A82F82010012802D004280AD15A
:100FB00004E001216B4A2032117005E00521694AE5
:100FC0002032117000E000BF00BF7047694908601F
:100FD00070476449096A0143624A11627047654972
:100FE00044390860704730B50021002200240023F6
:100FF0005C4D6D6805F00C0121B1042905D008296C
:1010000023D105E05C4D056022E05B4D05601FE0EB
:10101000544D6D6805F47012524D6D6805F48034BE
:10102000022505EB92421CB9544D554305600BE077
:101030004C4D6D6805F400351DB1504D55430560AC
:1010400002E04D4D5543056002E04B4D056000BF89
:1010500000BF444D6D6805F0F0010909484D6B5C17
:101060000568DD4045603F4D6D6805F4E061090AA3
:10107000434D6B5C4568DD4085603A4D6D6805F415
:101080006051C90A3E4D6B5C4568DD40C560354D19
:101090006D6805F44041890B3A4D6B5CC568B5FB42
:1010A000F3F5056130BD29B12E4A526902432D4B3B
:1010B0005A6104E02B4A526982432A4B5A617047B5
:1010C00029B1284A92690243264B9A6104E0254AD5
:1010D00092698243234B9A61704729B1214AD269B0
:1010E0000243204BDA6104E01E4AD26982431D4B61
:1010F000DA61704729B11B4AD2680243194BDA60A2
:1011000004E0184AD2688243164BDA60704729B16E
:10111000144A12690243134B1A6104E0114A12691E
:101120008243104B1A61704712494039086070477A
:101130000F49C86470470B49C87170470948406A35
:1011400040F0807007494862704701460020054A18
:1011500092680A400AB1012000E00020704701496E
:1011600088727047001002400000FFF8FFFFF6FE93
:10117000000042428004424200127A0000093D0011
:10118000140000202400002010B50446FB488442CF
:1011900009D101218803FFF7ADFF00214FF4804002
:1011A000FFF7A8FF32E0F648844209D10121480444
:1011B000FFF7ADFF00214FF40030FFF7A8FF25E057
:1011C000F048844209D101218804FFF7A0FF0021E3
:1011D0004FF48020FFF79BFF18E0EB48844209D1D1
:1011E0000121C804FFF793FF00214FF40020FFF70F
:1011F0008EFF0BE0E548844208D101210805FFF786
:1012000086FF00214FF48010FFF781FF10BD2DE90C
:10121000F04786B005460E460024A24600BFA14610
:101220000027B08900B100BF2F462C8A4CF6FF7012
:101230000440F08804432C82AC894EF6F31004403D
:10124000B08831890843718908430443AC81AC8A72
:101250004FF6FF400440B0890443AC8201A8FFF779
:10126000C2FEC648874202D1DDF810A001E0DDF8D9
:101270000CA0A88900F4004040B10AEBCA0000EBC2
:101280000A1031684900B0FBF1F807E00AEBCA0028
:1012900000EB0A1031688900B0FBF1F86420B8FB5C
:1012A000F0F004012009642101FB1089A88900F4F1
:1012B000004040B1322000EBC900B0FBF1F000F07B
:1012C0000700044308E0322000EB09106421B0FB62
:1012D000F1F000F00F0004432C8106B0BDE8F08768
:1012E0004FF41651016000218180C18001810C21E1
:1012F000418100218181704710B502460020108A8B
:101300004FF2FF0318400B884C8823438C882343FB
:10131000CC8823431843108210BD002101804180F6
:101320008180C180704721B1828942F4005282815C
:1013300004E082894DF6FF731A4082817047F0B550
:101340000346002400260025002040F66A17B94213
:1013500000D100BF1846C1F3421401F01F06012757
:1013600007FA06F5012C01D10C3004E0022C01D162
:10137000103000E014301AB107682F43076002E014
:101380000768AF430760F0BD1AB1838A0B438382BD
:1013900002E0838A8B4383827047028A4FF6F073A0
:1013A0001A400282028A0A430282704782894FF2FF
:1013B000FF731A40828182890A438281704721B17A
:1013C000828942F00202828104E082894FF6FD7335
:1013D0001A4082817047028A4FF6DF731A400282F8
:1013E000028A0A430282704721B1028A42F4804293
:1013F000028204E0028A4BF6FF731A4002827047B1
:10140000C1F308028280704701468888C0F3080053
:101410007047818941F0010181817047028BD2B20E
:101420000283028B42EA012202837047028B02F49C
:101430007F420283028B0A430283704721B1828A72
:1014400042F02002828204E0828A4FF6DF731A4063
:101450008282704721B1828A42F01002828204E0C7
:10146000828A4FF6EF731A408282704721B1828AD6
:1014700042F00802828204E0828A4FF6F7731A4033
:101480008282704721B1828942F40042828103E066
:101490008289C2F30E028281704721B1828A42F4AE
:1014A0000062828204E0828A4FF2FF731A408282D5
:1014B0007047828A4FF6FB731A408282828A0A43FF
:1014C0008282704721B1828A42F00202828204E065
:1014D000828A4FF6FD731A408282704702460020CE
:1014E000B1F5007F00D100BF13880B400BB1012084
:1014F00000E00020704701F40072B2F5007F00D1D7
:1015000000BFCA430280704770B502460024002322
:101510000025002040F66A16B14200D100BFC1F399
:10152000421501F01F03012606FA03F3012D02D133
:101530009689334006E0022D02D1168A334001E03D
:10154000968A33400C12012606FA04F416883440B9
:1015500013B10CB1012000E0002070BD10B50022D5
:10156000002340F66A14A14200D100BF0A120124F0
:101570009440A3B2DC43048010BD00000038014059
:101580000044004000480040004C00400050004033
:1015900001B502E00098401E009000980028F9D1A3
:1015A00008BD002400F0E5F800F0C2F800F0EEF904
:1015B00021E000F017FA044600F014FA054621462F
:1015C00000F0BCFA044600F00DFA0546214600F092
:1015D000B5FA04460849204600F008FB074600F02B
:1015E000D0FC05462A460B4604A000F047FE4FF407
:1015F000FA7000F0C0F9DCE7000040400D0A2566F3
:1016000000000000704700BFFEE700BFFEE700BF1C
:10161000FEE700BFFEE77047704770477047000065
:1016200008B501210420FFF74BFD0620ADF80000AE
:1016300000208DF8030069464048FFF785FA08BD91
:1016400000B591B001210846FFF72DFD01214802A8
:10165000FFF736FD3A48FFF7EDF83A4806903A486A
:101660000790002008900220099000200A90802016
:101670000B9040000C9080000D9020200E900002F6
:101680000F900020109006A92D48FFF775F9012151
:101690002B48FFF79CF90020019001208DF80800ED
:1016A0008DF809004FF46020039000200490022080
:1016B0008DF8140001A923484C38FEF7BAFE4FF408
:1016C0000040FFF761FC01231A4619461D484C38BB
:1016D000FEF747FF0123022211461A484C38FEF755
:1016E00040FF012117484C38FEF7DAFE012115486A
:1016F0004C38FEF7CAFE13484C38FEF7E8FE00BF30
:1017000010484C38FEF7E8FE0028F9D10D484C3857
:10171000FEF7ECFE00BF0B484C38FEF7ECFE00284D
:10172000F9D1012107484C38FEF7EFFE11B000BD9A
:1017300010B5FFF775FFFFF783FF10BD00080140EC
:10174000080002404C2401402800002008B54FF456
:10175000A060FEF7D9FD25208DF8000001208DF84E
:1017600001008DF802008DF803006846FEF7D1FDF8
:1017700008BD00B585B001210420FFF7A1FC0121BF
:101780008803FFF79DFC4FF40070ADF8100018209F
:101790008DF8130003208DF8120004A95248FFF7BA
:1017A000D3F94FF48060ADF8100004208DF81300D9
:1017B00004A94D48FFF7C8F94FF4E130009000202C
:1017C000ADF80400ADF80600ADF80800ADF80C0067
:1017D0000C20ADF80A0069464448FFF718FDFFF7F2
:1017E000B5FF012240F225514048FFF7A8FD012135
:1017F0003E48FFF798FD05B000BD70B504460D46A4
:1018000029462046FFF7FCFD00BF80212046FFF758
:1018100065FE0028F9D070BD2DE9F04107460D4660
:101820001646002405E0295D3846FFF7E6FF601CF8
:10183000C4B2B442F7DB00BF40213846FFF74EFE8A
:101840000028F9D0BDE8F08170B506460C460025A9
:1018500000BF615D3046FFF7D0FF6D1C605D002862
:10186000F7D100BF40213046FFF738FE0028F9D0FD
:1018700070BD2DE9F04105460C46260AE7B2314617
:101880002846FFF7BDFD00BF80212846FFF726FE52
:101890000028F9D039462846FFF7B2FD00BF802165
:1018A0002846FFF71BFE0028F9D0BDE8F08170B58F
:1018B00004460D46E1B20D48FFF7A2FD00BF8021AE
:1018C0000A48FFF70BFE0028F9D0204670BD10B57E
:1018D000044600BF20210548FFF700FE0028F9D08C
:1018E0000248FFF791FD10BD00080140003801409B
:1018F000002100BF3CE000BF00BF00BF00BF00BF31
:1019000000BF00BF00BF00BF00BF00BF00BF00BFDF
:1019100000BF00BF00BF00BF00BF00BF00BF00BFCF
:1019200000BF00BF00BF00BF00BF00BF00BF00BFBF
:1019300000BF00BF00BF00BF00BF00BF00BF00BFAF
:1019400000BF00BF00BF00BF00BF00BF00BF00BF9F
:1019500000BF00BF00BF00BF00BF00BF00BF00BF8F
:1019600000BF00BF00BF00BF00BF00BF00BF491CD9
:101970008142C0D3704710B5034640F2393003FBB3
:1019800000F42046FFF7B4FF10BD000008B50121A8
:101990000520FFF795FB01211048FFF7A6F94FF44A
:1019A0000060ADF8000010208DF8030003208DF8D2
:1019B000020069460A48FFF7C7F84FF48050ADF8B7
:1019C000000069460648FFF7BFF84FF40040ADF845
:1019D000000069460248FFF7B7F808BD0002300072
:1019E000000801402DE9F04FFDB04FF4E67109A861
:1019F00000F099F8002008904FF400614348FFF789
:101A000050F91420FFF7B7FF4FF400613F48FFF78C
:101A10004AF94FF0000A0BE03D48008809A921F877
:101A20001A006420FFF764FF0AF1010000F0FF0ACA
:101A3000BAF1E60FF0DB4FF0030A25E009A931F80F
:101A40001A0000F099FA4FF08B41049000F0CEF8A4
:101A5000059000F096FA4FF066322E4BCDE9060164
:101A600000F0A9F906460F46089800F08AFA804669
:101A700032463B4600F0F8F8044600F095FA08902C
:101A80000AF1010000F0FF0ABAF1E60FD6DBBDF85B
:101A9000EE0100F071FA81464FF08B4100F0A6F89C
:101AA000804600F06EFA04464FF06632194B00F0A3
:101AB00082F9CDE90201BDF82A0000F05DFA814605
:101AC0004FF08B4100F092F8804600F05AFA04463D
:101AD0004FF066320F4B00F06EF9CDE90001DDE901
:101AE000022300F062F9CDE90601089800F049FAF6
:101AF000CDE90401DDE9062300F0CFF9064600F048
:101B000053FA834658467DB0BDE8F08F0008014087
:101B10002800002066660A40D2B201E000F8012BDE
:101B2000491EFBD270470022F6E710B513460A465D
:101B300004461946FFF7F0FF204610BDF0B480EAD6
:101B40000102D40F4200B2EB410F02D20246084616
:101B500011464A0042D0C30DDDB2C1F3C752AD1ADF
:101B6000202D35DAC1F3160141F4000204B15242CE
:101B7000C5F1200602FA06F12A411044B3EBD05F0A
:101B800023D0C4B1012DA0EBC35009DCF0BC4FF051
:101B9000004202EAC352DBB200F5000000F091BA45
:101BA000400000F1807000EBC350A0F1807040EA6B
:101BB000D170490009E0490841EAC071A0EBC35067
:101BC00000F50000400800EBC350F0BC00F070BA14
:101BD0006142012202EB4101001BF6E7F0BC7047B5
:101BE00081F00041AAE780F00040A7E730B480EA26
:101BF000010202F0004530F0004221F0004013D015
:101C000090B1C30DD40DC2F31601C0F31600E41A4F
:101C100041F4000140F400027D34914201D3641C80
:101C200000E04900002C02DA30BC002070474FF47D
:101C300000000023914201D3891A034340084FEA70
:101C40004101F7D151B1914202D14FF0004105E07D
:101C500002D24FF0010101E06FF0010103EBC4502B
:101C6000284430BC00F024BA2DE9FE4F804681EABA
:101C70000300C00F0C46009021F0004123F0004506
:101C8000B8EB0200A94105D24046214690461C46C9
:101C90000B46024623F00040104347D0270DC7F300
:101CA0000A00C3F30A510290401A019040286BDAEF
:101CB000C3F3130040F4801B0098924620B1002328
:101CC000D2EB030A63EB0B0B01985946C0F14002BB
:101CD000504600F0CCF906460D4650465946019A4A
:101CE00000F0D4F910EB08006141002487EA11529A
:101CF00084EAE7731A4340D0009A62B3019A012A3A
:101D00004FEA075215DC001B61EB02014FF0004265
:101D100002EA0752CDE90042001C41F5801132462B
:101D20002B4600F00BFA03B0BDE8F08F4046214689
:101D3000F9E7001B61EB0201001C41F5801300185C
:101D40005B412018A2F5001747EB030140EAD5706C
:101D5000B6196D4111E06D084FEA360645EAC075C7
:101D60004FEA0752001B61EB0201001C41F5801194
:101D700049084FEA30000019514132462B4603B062
:101D8000BDE8F04F00F0CBB90098012240000023DD
:101D9000D0EB020263EBE073009821464FEAE07457
:101DA000B8EB000061EB0401E9E783F000435BE777
:101DB00081F0004158E72DE9FE4F81EA030404F069
:101DC000004421F0004100944FF0000B23F0004349
:101DD00050EA01045ED052EA03045BD0C3F30A5414
:101DE000C1F30A552C44A4F2F3340194A0FB02542D
:101DF000C1F3130141F48011C3F3130343F48013BF
:101E000001FB024400FB034E840A970A44EA815412
:101E100047EA8357A4FB076802958D0A05FB0785EF
:101E20004FEA932C04FB0C542705029D4FEA0658F9
:101E300047EA1637B5EB08056EEB070C870E920ED6
:101E400047EA811742EA8312A7FB0201B6EB0B01B6
:101E500064EB00042B0D43EA0C335E1844EB1C507A
:101E6000DA465146E7FB0201C5F313044FEA0B3390
:101E700043EA14534FEA0432019C43EA0603A4F1F7
:101E80000C040294009CCDE900B400F057F903B0B3
:101E9000BDE8F08F00200146F9E72DE9F04D81EA19
:101EA000030404F0004B21F0004514464FF0000AF3
:101EB00023F0004150EA050220D054EA01021DD06F
:101EC000C5F30A570246C5F31303C1F31300C1F368
:101ED0000A5640F4801543F48013A7EB0608101B44
:101EE000D64608F2FD3873EB050002D308F101086D
:101EF00001E092185B41B8F1000F03DA00200146BF
:101F0000BDE8F08D00204FF48011064684460EE0B7
:101F1000171B73EB050705D3121B63EB0503064381
:101F20004CEA010C49084FEA300092185B4150EA34
:101F30000107EDD152EA030012D082EA040083EADD
:101F40000501084305D0101BAB4106D20122002336
:101F500006E000224FF0004302E06FF00102531050
:101F60001AEB06004CEB085110EB0A0041EB0B0199
:101F7000BDE8F04D00F0D3B896230022114600F0E2
:101F8000A0B800F0004230F000400AD0C10D01F5C9
:101F90006071C0F3160042EA0151C20840071143C4
:101FA000704700200146704701F0004330B421F033
:101FB000004150EA010206D00A0DA2F56072C1F399
:101FC0001301002A02DC30BC00207047440F44EAB1
:101FD000C104C100E01830BC00EBC25000F068B88A
:101FE00030B50B46014600202022012409E021FAE9
:101FF00002F59D4205D303FA02F5491B04FA02F5E6
:102000002844151EA2F10102F1DC30BD2DE9F05F7C
:102010000546002092469B46884606468146402457
:102020001BE0284641464746224600F017F9534632
:102030005A46C01A914110D311461846224600F064
:1020400016F82D1A67EB01084F46224601200021A1
:1020500000F00DF817EB00094E41201EA4F1010419
:10206000DFDC484631462A464346BDE8F09F202A39
:1020700004DB203A00FA02F1002070479140C2F1DF
:10208000200320FA03F3194390407047202A06DB0F
:10209000CB17203A41FA02F043EAE07306E041FA36
:1020A00002F3D040C2F12002914008431946704724
:1020B0000029A8BF7047401C490008BF20F001005C
:1020C000704710B4B0FA80FC00FA0CF050EA01043A
:1020D00004BF10BC704749B1CCF1200421FA04F4CC
:1020E00011FA0CF118BF012121430843A3EB0C01A5
:1020F000CB1D4FEA00614FEA102042BF002010BC08
:10210000704700EBC35010440029A4BF10BC7047B7
:10211000401C490008BF20F0010010BC704710B5FA
:10212000141E73F1000408DA401C41F100019218FA
:102130005B411A4301D120F0010010BD2DE9F04DA3
:1021400092469B4611B1B1FA81F202E0B0FA80F2F8
:1021500020329046FFF78BFF04460F4640EA0A0004
:1021600041EA0B0153465A46084313D0114653EA3D
:10217000010019D0C8F14002504600F06FF8054642
:102180000E46504659464246FFF771FF084305D0B8
:10219000012004E020463946BDE8F08D00200543CB
:1021A00046EAE0762C4337430A986305E40AA0EB3D
:1021B00008000022FD0A44EA47540A3002D50020F4
:1021C0000146E9E7010510196941DDE908450019F3
:1021D0006941BDE8F04DA2E7C1F30A52C1F3130112
:1021E00040F2FF3341F480119A4202DA00200146A6
:1021F000704740F233439A42A2F2334202DC524229
:1022000000F02CB8FFF733BF30B5041E71F10004A5
:1022100004DB4FF00044404264EB0101141E73F1F3
:10222000000405DB1C464FF00043524263EB0403FD
:10223000994208BF904230BD064C074D06E0E06869
:1022400040F0010394E8070098471034AC42F6D3FD
:10225000FDF750FF482B0008682B0008202A04DBFC
:10226000203A21FA02F00021704721FA02F3D0400F
:10227000C2F1200291400843194670470FB4054B44
:1022800010B503A9044A029800F0DAF810BC5DF812
:1022900014FB0000AF1800082C00002002E008C862
:1022A000121F08C1002AFAD170477047002001E0D0
:1022B00001C1121F002AFBD1704700002DE9FF5F0A
:1022C00082B00021DDE90430020DDDF840B00343A7
:1022D00018D044F61050A2F2FF3242431514119860
:1022E00001281FD0A5EB0B00401C5FEA000A4FF04D
:1022F00000064E4FDFF83891B046504615D5CAF16A
:10230000000413E0119801244AA3012801D16FEAC7
:102310000B010298119AC0E90031C0E9024206B0EF
:10232000BDE8F09FCBF10000DFE704460021404A02
:10233000491842EB0450CDE9001012E0E00707D045
:1023400032463B4640464946FFF735FD80468946C2
:1023500032463B4610461946FFF72DFD06460F460E
:102360006410002CEAD1DDE90401DDE90023BAF1B3
:10237000000F06DAFFF71FFD42464B46FFF71BFD35
:1023800005E0FFF78AFD42464B46FFF786FD04460F
:102390000E460022284BFFF737FF03D84FF0FF30DF
:1023A000014607E00022254B20463146FFF75CFC42
:1023B000FFF712FF102409E0002C0ADB0A22002399
:1023C000FFF724FE039B30321A55641E50EA0102C7
:1023D000F2D1641C039AC4F111031444119A012A26
:1023E00003D0012208430DD10AE0084304D00020A5
:1023F0004FF0110B119072E7A3EB0B056D1E0DE072
:102400005B4504DD4FF0000205F1010504E003DA4D
:102410004FF00002A5F10105002AECD002981199B5
:10242000C0E90231C0E9004579E70000000014402E
:102430000000F03F300000000000F0430000E03FEB
:102440002DE9FF4F95B09A46884606460025EEE1F5
:10245000252877D100242746F94A0121039400E07A
:10246000044316F8013F203B01FA03F01042F7D174
:1024700030782A2811D06FF02F033078A0F1300285
:10248000092A16D8039A44F0020402EB820203EBF5
:1024900042021044761C0390EFE758F8042B039295
:1024A000002A03DA504244F40054039044F002043A
:1024B000761C30782E2816D116F8010F44F004044B
:1024C0002A280DD06FF02F023078A0F13003092BAD
:1024D00009D807EB870302EB4303C718761CF3E721
:1024E00058F8047B761C30786C280FD006DC4C281A
:1024F00017D068280DD06A2814D104E0742810D0B1
:102500007A280FD10DE044F400140AE044F480145A
:1025100001E044F440147278824202D104F5801440
:10252000761C761C307866280BD013DC582877D0C0
:1025300009DC002875D04528F6D04628F4D0472875
:102540001AD193E118E0632835D0642879D0652842
:1025500012D18BE1702873D008DC6728F1D069288C
:102560006FD06E280DD06F2806D1ACE073282CD028
:10257000752874D0782853D05246179990476D1C0F
:1025800054E1C4F30250022809D003280DD0D8F832
:10259000001004280DD00D6008F1040846E1D8F8B9
:1025A0000010EA17C1E90052F6E7D8F800100D80D4
:1025B000F2E70D70F0E718F8041B8DF8001000200A
:1025C0008DF80100EB46012003E058F804BB4FF002
:1025D000FF3061074FF0000102D40DE009F1010165
:1025E0008946B9420FDA8145F8DB1BF8091000294A
:1025F000F4D108E009F1010189468142FADB1BF8B8
:1026000009100029F6D103985346A0EB090721468B
:102610003846179A00F080FA284400EB090507E0D5
:1026200044E008E10DE01BF8010B52461799904772
:10263000B9F10109F7D2534621463846179AF2E01C
:1026400039E00A21C4F302524FF0000B0091022A34
:1026500006D058F8040BC117032A09D00AE023E07A
:1026600008F1070020F00702F2E80201904605E0B9
:1026700000B2C117042A01D140B2C117002906DAFD
:102680000A460021404261EB02012D2202E02205B0
:1026900004D52B228DF80420012203E0E20701D0AB
:1026A0002022F7E7914657E00A2100E010214FF081
:1026B000000B00910BE010214FF0000B44F00404DC
:1026C0000827009103E008204FF0000B0090C4F3AE
:1026D0000252022A05D058F8040B0021032A08D020
:1026E00008E008F1070020F00702F2E80201904636
:1026F00003E080B2042A00D1C0B24FF000092207E3
:102700002AD53278702A07D0DDF800C08CF0100C82
:102710005CEA0B0C05D00EE040228DF8042001226B
:1027200008E050EA010306D030238DF804308DF81C
:10273000052002229146009B83F0080353EA0B0315
:102740000AD150EA010201D1620705D530228DF885
:1027500004204FF001097F1E3278582A04D039A294
:102760000C920CAA02920BE03BA2F9E75B46009A9E
:10277000FFF74CFC0C9B9B5C029A521E029213705A
:1027800050EA0102F2D1029804A9081A00F1200BC4
:10279000600702D524F4803400E001275F4502DDA4
:1027A000A7EB0B0000E0002000EB0B01009003986A
:1027B0004944401A0390E00306D453462146179A31
:1027C000039800F0A9F90544002706E001A8524645
:1027D000C05D179990476D1C7F1C4F45F6DBE003E9
:1027E0000CD553462146179A039800F095F90544F5
:1027F00004E030205246179990476D1C0099481EFE
:1028000000900029F5DC08E0029802995246007811
:10281000491C0291179990476D1CBBF10001ABF167
:10282000010BF1DC5BE100F065F90544761C3078C2
:1028300000287FF40DAE19B02846BDE8F08F0000E7
:102840000928010030313233343536373839616286
:10285000636465660000000030313233343536374A
:10286000383941424344454600000000600700D427
:10287000062708F1070020F00700F0E80223804651
:1028800003F0004C5FEA0C0001D097A009E020059E
:1028900001D596A005E0E00701D095A001E0AFF2D8
:1028A0004C001390307823F0004365280CD006DCF0
:1028B000452809D046281DD047287FD13BE066280F
:1028C00018D067287AD136E00021112F01DB1120C2
:1028D00000E0781CCDE9000104A90CA8FFF7EEFC8C
:1028E000DDE90D010C9A4FF0000B07F10109109280
:1028F00000914EE04FF000400097CDE9011004A98F
:102900000CA8FFF7DBFCDDE90D020C9B0F994FF0E3
:10291000000B91461093009211B9791C00EB01094C
:10292000B7EB090003D4C0F1FF3B07F10109A9EBA4
:102930000700019042E0012F00DA01270021112F4A
:1029400001DD112000E03846CDE9000104A90CA802
:10295000FFF7B4FCDDE90D010C9A00914FF0000B7C
:10296000B946109221070FD4009A4A4503DA9146DE
:1029700001E0A9F10109B9F1010F05DD109AA9F1F2
:102980000101515C3029F4D0B84202DA10F1040F91
:1029900003DA0121CDE9011010E0002803DC8344B3
:1029A000A9EB000102E0411C494500DD8946A0EB8E
:1029B0000B00401C01904FF000400290200705D40E
:1029C0000198484502DB4FF0FF30019000208DF860
:1029D0004B0002980DF14B07B0F1004F25D00220BB
:1029E0000C902B200D90029800280CDA40420290A7
:1029F0002D200D9007E00A210298FFF7F1FA3031FF
:102A0000029007F8011D0C99481E0C900029F2DC79
:102A100002980028EFD1791E0D980870307800F0E8
:102A2000200040F0450007F8020D11A8C01BC01D92
:102A300002901398007800B1012000EB0901019881
:102A400001EBE071029801440398401A401E039084
:102A5000E00306D453462146179A039800F05CF829
:102A600005441398007818B15246179990476D1C89
:102A7000E00323D553462146179A039800F04CF8FB
:102A800005441BE0BBF1000F07DB0098584504DD4F
:102A90001098179910F80B0001E017993020524652
:102AA000904701980BF1010B401E05F101050190C3
:102AB00004D12E205246179990476D1CB9F10001A0
:102AC000A9F10109DEDC05E017F8010B5246179960
:102AD00090476D1C0299481E02900029F4DC534671
:102AE0002146179A03989EE62D0000002B00000057
:102AF000200000002DE9F041044600251E4617463F
:102B0000880404D405E039462020B0476D1C641EBB
:102B1000F9D52846BDE8F0812DE9F04104460025AD
:102B20001E469046C80301D5302700E020278804C0
:102B300004D505E041463846B0476D1C641EF9D502
:102B40002846BDE8F0810000682B00080000002046
:102B5000300000009C220008982B00083000002064
:102B600000040000AC22000800A24A04000000009B
:102B7000000000000102030406070809000000002D
:102B800001020304010203040607080902040608FF
:082B900000000000000000003D
:04000005080000ED02
:00000001FF
